:020000040000fa
:080000000002040000000000f2
:020000040000fa
:04000800c80200002a
:020000040000fa
:04000c00c802000026
:020000040000fa
:04001000c802000022
:020000040000fa
:04001400c80200001e
:020000040000fa
:04001800c80200001a
:020000040000fa
:04001c00c802000016
:020000040000fa
:04002000c802000012
:020000040000fa
:04002400c80200000e
:020000040000fa
:04002800c80200000a
:020000040000fa
:04002c00c802000006
:020000040000fa
:04003000c802000002
:020000040000fa
:04003400c8020000fe
:020000040000fa
:04003800c8020000fa
:020000040000fa
:04003c00c8020000f6
:020000040000fa
:04004000c8020000f2
:020000040000fa
:04004400c8020000ee
:020000040000fa
:04004800c8020000ea
:020000040000fa
:04004c00c8020000e6
:020000040000fa
:04005000c8020000e2
:020000040000fa
:04005400c8020000de
:020000040000fa
:04005800c8020000da
:020000040000fa
:04005c00c8020000d6
:020000040000fa
:04006000c8020000d2
:020000040000fa
:04006400c8020000ce
:020000040000fa
:04006800c8020000ca
:020000040000fa
:04006c00c8020000c6
:020000040000fa
:04007000c8020000c2
:020000040000fa
:04007400c8020000be
:020000040000fa
:04007800c8020000ba
:020000040000fa
:04007c00c8020000b6
:020000040000fa
:04008000c8020000b2
:020000040000fa
:04008400c8020000ae
:020000040000fa
:04008800c8020000aa
:020000040000fa
:04008c00c8020000a6
:020000040000fa
:04009000c8020000a2
:020000040000fa
:04009400c80200009e
:020000040000fa
:04009800c80200009a
:020000040000fa
:04009c00c802000096
:020000040000fa
:0400a000c802000092
:020000040000fa
:0400a400c80200008e
:020000040000fa
:0400a800c80200008a
:020000040000fa
:0400ac00c802000086
:020000040000fa
:0400b000c802000082
:020000040000fa
:0400b400c80200007e
:020000040000fa
:0400b800c80200007a
:020000040000fa
:0400bc00c802000076
:020000040000fa
:0400c000c802000072
:020000040000fa
:0400c400c80200006e
:020000040000fa
:0400c800c80200006a
:020000040000fa
:0400cc00c802000066
:020000040000fa
:0400d000c802000062
:020000040000fa
:0400d400c80200005e
:020000040000fa
:0400d800c80200005a
:020000040000fa
:0400dc00c802000056
:020000040000fa
:0400e000c802000052
:020000040000fa
:0400e400c80200004e
:020000040000fa
:0400e800c80200004a
:020000040000fa
:0400ec00c802000046
:020000040000fa
:0400f000c802000042
:020000040000fa
:0400f400c80200003e
:020000040000fa
:0400f800c80200003a
:020000040000fa
:0400fc00c802000036
:020000040000fa
:04010000c802000031
:020000040000fa
:04010400c80200002d
:020000040000fa
:04010800c802000029
:020000040000fa
:04010c00c802000025
:020000040000fa
:04011000c802000021
:020000040000fa
:04011400c80200001d
:020000040000fa
:04011800c802000019
:020000040000fa
:04011c00c802000015
:020000040000fa
:04012000c802000011
:020000040000fa
:04012400c80200000d
:020000040000fa
:04012800c802000009
:020000040000fa
:04012c00c802000005
:020000040000fa
:04013000c802000001
:020000040000fa
:04013400c8020000fd
:020000040000fa
:04013800c8020000f9
:020000040000fa
:04013c00c8020000f5
:020000040000fa
:04014000c8020000f1
:020000040000fa
:04014400c8020000ed
:020000040000fa
:04014800c8020000e9
:020000040000fa
:04014c00c8020000e5
:020000040000fa
:04015000c8020000e1
:020000040000fa
:04015400c8020000dd
:020000040000fa
:04015800c8020000d9
:020000040000fa
:04015c00c8020000d5
:020000040000fa
:04016000c8020000d1
:020000040000fa
:04016400c8020000cd
:020000040000fa
:04016800c8020000c9
:020000040000fa
:04020800c802000028
:020000040000fa
:04020c00c802000024
:020000040000fa
:04021000c802000020
:020000040000fa
:04021400c80200001c
:020000040000fa
:04021800c802000018
:020000040000fa
:04021c00c802000014
:020000040000fa
:04022000c802000010
:020000040000fa
:04022400c80200000c
:020000040000fa
:04022800c802000008
:020000040000fa
:04022c00c802000004
:020000040000fa
:04023000c802000000
:020000040000fa
:04023400c8020000fc
:020000040000fa
:04023800c8020000f8
:020000040000fa
:04023c00c8020000f4
:020000040000fa
:04024000c8020000f0
:020000040000fa
:04024400c8020000ec
:020000040000fa
:04024800c8020000e8
:020000040000fa
:04024c00c8020000e4
:020000040000fa
:04025000c8020000e0
:020000040000fa
:04025400c8020000dc
:020000040000fa
:04025800c8020000d8
:020000040000fa
:04025c00c8020000d4
:020000040000fa
:04026000c8020000d0
:020000040000fa
:04026400c8020000cc
:020000040000fa
:04026800c8020000c8
:020000040000fa
:04026c00c8020000c4
:020000040000fa
:04027000c8020000c0
:020000040000fa
:04027400c8020000bc
:020000040000fa
:04027800c8020000b8
:020000040000fa
:04027c00c8020000b4
:020000040000fa
:04028000c8020000b0
:020000040000fa
:04028400c8020000ac
:020000040000fa
:04028800c8020000a8
:020000040000fa
:04028c00c8020000a4
:020000040000fa
:04029000c8020000a0
:020000040000fa
:04029400c80200009c
:020000040000fa
:04029800c802000098
:020000040000fa
:04029c00c802000094
:020000040000fa
:0402a000c802000090
:020000040000fa
:0402a400c80200008c
:020000040000fa
:0402a800c802000088
:020000040000fa
:0402ac00c802000084
:020000040000fa
:0402b000c802000080
:020000040000fa
:0402b400c80200007c
:020000040000fa
:0402b800c802000078
:020000040000fa
:0402bc00c802000074
:020000040000fa
:0402c000c802000070
:020000040000fa
:0402c400c80200006c
:020000040000fa
:0402c800c802000068
:020000040000fa
:0402cc00c802000064
:020000040000fa
:0402d000c802000060
:020000040000fa
:0402d400c80200005c
:020000040000fa
:0402d800c802000058
:020000040000fa
:0402dc00c802000054
:020000040000fa
:0402e000c802000050
:020000040000fa
:0402e400c80200004c
:020000040000fa
:0402e800c802000048
:020000040000fa
:0402ec00c802000044
:020000040000fa
:0402f000c802000040
:020000040000fa
:0402f400c80200003c
:020000040000fa
:0402f800c802000038
:020000040000fa
:0402fc00c802000034
:020000040000fa
:04030000c80200002f
:020000040000fa
:04030400c80200002b
:020000040000fa
:04030800c802000027
:020000040000fa
:04030c00c802000023
:020000040000fa
:04031000c80200001f
:020000040000fa
:04031400c80200001b
:020000040000fa
:04031800c802000017
:020000040000fa
:04031c00c802000013
:020000040000fa
:04032000c80200000f
:020000040000fa
:04032400c80200000b
:020000040000fa
:04032800c802000007
:020000040000fa
:04032c00c802000003
:020000040000fa
:04033000c8020000ff
:020000040000fa
:04033400c8020000fb
:020000040000fa
:04033800c8020000f7
:020000040000fa
:04033c00c8020000f3
:020000040000fa
:04034000c8020000ef
:020000040000fa
:04034400c8020000eb
:020000040000fa
:04034800c8020000e7
:020000040000fa
:04034c00c8020000e3
:020000040000fa
:04035000c8020000df
:020000040000fa
:04035400c8020000db
:020000040000fa
:04035800c8020000d7
:020000040000fa
:04035c00c8020000d3
:020000040000fa
:04036000c8020000cf
:020000040000fa
:04036400c8020000cb
:020000040000fa
:04036800c8020000c7
:020000040000fa
:100400008f8020000ebf20000e0188000000000039
:10041000000020000000e000020032000001200087
:1004200020028800140007005b0007000000e000c5
:1004300003003a0080832000010020000200370002
:100440000000200001002000810f70000100320038
:1004500014000700000020000000e000020032004d
:100460000000020000000000f00702000000000091
:100470000040da000000fe004440a9000000200017
:100480000000e0000300320000002000a00188000e
:100490004440a800000006008a1f78008b1f7800e7
:1004a0000000060091018800800478000000eb0045
:1004b0001a003700e284440032a0b4009905ba0063
:1004c000e284440032a0b4009906ba00e2844400f9
:1004d00032a0b4000006eb00476fde00fd07b2005b
:1004e000636ce10003003a00ebff07000000eb0043
:1004f0000a003700606ce10004003a00005deb0088
:100500008b05e900fdff3e00040037006168e10053
:10051000010032000086eb000b00070019c7ba008b
:100520001905ba000e04e00003003a000a00e000da
:10053000e0ff3a0000000600fe07b2009e018800be
:100540008a047800f5ff3700395dba008b05e900b1
:100550000c003200295dba008b05e900080032006a
:100560000c00e00003003a00e284440032a0b40032
:10057000f5ff370019ddba008b05e900faff3a00f4
:100580008904e800e184440032a0b40000000600c1
:100590000040da000000fe000000050003f0a200a9
:1005a000889fbe008a9fbe008c1f7800c300070092
:1005b000ca0033006450e1004f0032006420e100c3
:1005c0005200320003826c0007003b000905d00096
:1005d0000306d000820f54000c065d0002003900b3
:1005e00002003200890178000306780085825500f8
:1005f00004003d000003fd008103fd008502ea00c8
:100600008b854200840f720002003b0060001000e6
:10061000e08018006011b8000005eb007a28e100c6
:100620000a00390006007800c75ddd00f707b20058
:10063000878075002d003700828171000a017800e3
:10064000610560008180d1000080d3008502e9004f
:10065000f9ff3b00060440008784480002003b008d
:1006600060041400e0841c000988a3000700320025
:100670008a81710082817100610164008904d10066
:100680000884d3008b05e800170037000978a30021
:1006900013003a000b00e000130034008b05e90062
:1006a0000804440089844c000a4474000978a300bb
:1006b0000d003a000b00e000070034008b05e90054
:1006c0000804440089844c0001003a000b0020001b
:1006d0000978a300f7ff32000001eb0002003700a9
:1006e000828171000a0178004e0007000cf0a7001b
:1006f00001f0a000820037006420e10002003a000f
:10070000838f6c00820033000801be000200be002f
:100710007b003700889fbe008a9fbe008c1f780038
:10072000660007006d00330003866c006450e10032
:100730002e0032006420e100330032006150e100fd
:100740002f0032006120e100310032008585550024
:10075000eb07b00009002000080420000500370066
:100760000804440089844c000a0031000603430059
:1007700087834b000001530081815b00f8ff330049
:100780000203be000800a0000804440089844c0055
:10079000f6ff3900c639dd00830173000100320025
:1007a000130020008904d1000884d3000998a30015
:1007b000050032000800a7000300a0008904d10052
:1007c0000884d3008b05e8008904d1000884d30095
:1007d0000001eb000281d2001200070001f0a1002d
:1007e0000cf0a70001f0a000450037006420e100f4
:1007f000470032000801be000200be00f7ff3700cc
:100800006120e100420032006000b800f3ff3700d1
:100810000000200001f82700f0ff37006011b80049
:100820003e00370081002000618055000b003d0034
:100830000b00200061fe2f000100e1001d003400cc
:1008400082817100610164008904d1000884d300b1
:100850000000e800faff3a00710020006100640027
:1008600003007000020060000900320061044400cf
:10087000e0844c000988a500050032008b05e800e3
:100880006808e10002003a008904d1000884d3001e
:10089000f20f20000258e10005003d00c75ddd00b9
:1008a000f907b20089807500080078000000060092
:1008b0000bf827008b007800000005000004be0044
:1008c000450007000003be000405be000200be0094
:1008d00041000700844f7500000006000200be00c2
:1008e0006450e100050036006420e100020036009b
:1008f0000968a30001003a000800be000160a000e2
:100900004f0678004f05be004f04be0000000600f1
:10091000f0ff2f00f1ff2700f9ff3700889fbe008e
:100920008a9fbe0000827000040271000482710080
:10093000260032000004be000200be006011b800b4
:100940006b092000950220000182cf000a003900c7
:100950000541b1000082cf00070039000541b10018
:100960000982cf00040039000541b1000882cf00a0
:10097000010039000541b100054252001200320069
:100980000a003b0082817100610164008100d10096
:100990000080d3008984d3000884d3008b05e8004d
:1009a0000442e800f7ff3a0007003700080444005b
:1009b00089844c0000004800818048008b05e900d4
:1009c0000442e900f9ff3a0096ff07004f05be0018
:1009d0004f04be0000000600c70ade00f107b200a7
:1009e000f50fb20008003200e1cf420002003200f1
:1009f0000170a00024000500810f7000010032008a
:100a00000408050044000500810f700002003a0050
:100a1000140005008502e9000000400081c0480084
:0c0a2000fcff3b000170a000240005005a
:020000040000fa
:100a2c000000fa0002a2a8001110800000ff2f00a5
:100a3c00008060000030a0001010880030c1b300ae
:100a4c000ae2b70008e2a80008c2a900c922a8005f
:100a5c00c902a8000822ef008600a9000080fa0055
:100a6c00000006000000fa000000000040108000aa
:100a7c00610060000000e000fcff3a000080fa001a
:100a8c00000006000000fa000000000020108000aa
:100a9c007f0060000000e000fcff3a004010800086
:100aac00640060000000e000f8ff3a000080fa00eb
:100abc00000006000000fa00000000003004800076
:100acc00610060000000e000fcff32008600a9001d
:100adc000080fa00000006000000fa000000000090
:100aec00201080007f0060000000e000fcff3a0056
:100afc0040108000640060000000e000f8ff3a0045
:100b0c000080fa00000006000400fa00204798005c
:100b1c00314798002e40900000404000004f780074
:100b2c003e4090001e4f40001e80fb0000108800cd
:100b3c00ccff070021108000000420000080600022
:100b4c000000e000020032000040eb000100370022
:100b5c0010c0b3000080fa00000006000200fa008a
:100b6c00004f78001e80fb0000108800d1ff0700aa
:100b7c00bcff0700211080000004200000806000f2
:100b8c000000e000020032000040eb0001003700e2
:100b9c0010c0b3000080fa00000006000000fa004c
:100bac00cdff07000402a800000000002010800008
:100bbc00610060000000e000fcff3a00bdff070090
:100bcc0040108000680060000000e00002003a0065
:100bdc000040eb000100370010c0b3000080fa00a9
:100bec00000006000000fa00bbff07000422a8006a
:100bfc00b0ff0700000000002010800062006000c1
:100c0c000000e000fcff3a000080fa000000060043
:100c1c000000fa00b0ff070092ff07000442a80092
:100c2c00a4ff07000000000020108000640060009a
:100c3c000000e000fcff3a004010800070006000f3
:100c4c000000e00002003a0010c0b30001003700c1
:100c5c000040eb000080fa00000006000000fa00e3
:100c6c0004a2a9000482a80000000000201080004b
:100c7c00700060000000e000fcff3a000080fa0009
:100c8c00000006000000fa0004a2a8000482a800dc
:100c9c000000000020108000700060000000e000e8
:100cac00fcff3a000080fa00000006000400fa0085
:100cbc00204798000462a80000000000401080004b
:100ccc00610060000000e000fcff320000108000ba
:100cdc00004f78000462a9002e4090000004e00050
:100cec000200320004a2a9000100370004a2a800ef
:100cfc000482a8005bff07001e4078000080fa0009
:100d0c00000006000400fa00004f7800110798005c
:100d1c00a2ff07008040eb0080c1b3007aff070000
:100d2c001e4078008dff07001e0090004800de007a
:100d3c000040780089ff07001e00900000407800fa
:100d4c0086ff0700b2ff07000080fa0000000600d3
:100d5c000400fa002047980090ff07008040eb0049
:100d6c0080c1b30068ff07002e4090007bff070096
:100d7c009cff070011c0b30080c1b30062ff0700e5
:100d8c0010c0b300c9ff07000080fb004800dd0065
:100d9c00000f78000040eb00c4ff07000080fb0050
:100dac001e0f40009aff07001e0078000080fa001a
:100dbc00000006000600fa004047980010c0b3007f
:100dcc00e3ff0700000f78004e409000e14f500009
:100ddc0006003a001e0078000080a0001007980062
:100dec009e00900010c0b300c6ff07004e4090005c
:100dfc000004e00006003a00f0ef2f001e00600037
:100e0c00100798009e00900010c0b300bdff0700b3
:100e1c000080fa00000006000000fa0010c0b300c9
:100e2c00e4ff07000080fa00000006000000fa0052
:100e3c000040eb00dfff07000080fa000000060016
:100e4c000000fa0060c0b300c1ff0700410520009c
:100e5c00810f5000020032000040eb000b00370005
:100e6c0070c0b300baff070001402000810f500092
:100e7c00020032000040eb00040037008000eb0061
:100e8c0010c0b3009fff070010c0b3000080fa0031
:100e9c00000006000200fa0050c0b300acff0700cf
:100eac00000f78001e0078000080fa000000060099
:100ebc000600fa0050c0b300a5ff070020079800f9
:100ecc00ae009000f0ff2000008060008000eb007e
:100edc004ffe0700008fbe00020020000318240004
:100eec001e00be0008fe0700008fbe00ae00900082
:100efc0000002100008060000000e00005003200ce
:100f0c0002002000033824001e00be00a0fd0700d4
:100f1c00008fbe001e00be000080fa00000006001c
:100f2c000000fa00c022ef00c822ef00c882a9001e
:100f3c00e284a900ca82a900c0c2a800c062a900ac
:100f4c00e064a900c262a8000080fa00000006005c
:100f5c000000fa000080eb00803b88000080eb0072
:100f6c00903b88000080eb00a03b88000080eb00e9
:100f7c00b03b88007167a90070e7a90070a7a900b1
:100f8c000080fa00000006000000fa008240a80071
:100f9c0097a0a800910580000007200001007000b8
:100fac00900588000080fa00000006000000fa009e
:100fbc00dbff0700e6ff0700f3ff07000080fa00e5
:100fcc00000006000000fa000040eb000080fa0070
:100fdc00000006000200fa000040eb00004f780011
:100fec00f2ff0700f7ff0700004f78001e40780063
:100ffc000004e0000c003a0070e7a90088fe07002e
:10100c00000000008eff07000004e000fdff32002e
:10101c0000902000d1032000040007009dff070072
:0c102c000180200080087800ffff3700e2
:020000040000fa
:10103800f03fb1000180b10006003500ee03090061
:1010480000000000403fb1000180b100fbff3d00ff
:101058001000b000203fb0000200350000800900f9
:0810680000000000000006007a
:020000040000fa
:101070000008000008000000000000000000000060
:020000040000fa
:0200000401f009
:04000000ffff0000fe
:020000040000fa
:0200000401f009
:04000800ffff0000f6
:020000040000fa
:0200000401f009
:04000c0098ff000059
:020000040000fa
:0200000401f009
:0400100013ff0000da
:020000040000fa
:0200000401f009
:040014005fff00008a
:020000040000fa
:0200000401f009
:04001800f4ff0000f1
:020000040000fa
:0200000401f009
:04001c00ffff0000e2
:00000001FF
